{
  "_format": "hh-sol-artifact-1",
  "contractName": "StuffyBunny",
  "sourceName": "contracts/StuffyBunny.sol",
  "abi": [
    {
      "inputs": [
        {
          "internalType": "string",
          "name": "contractName",
          "type": "string"
        },
        {
          "internalType": "string",
          "name": "contractSymbol",
          "type": "string"
        },
        {
          "internalType": "address",
          "name": "_vault",
          "type": "address"
        },
        {
          "internalType": "address",
          "name": "_signer",
          "type": "address"
        },
        {
          "internalType": "string",
          "name": "__baseTokenURI",
          "type": "string"
        },
        {
          "internalType": "string",
          "name": "_hiddenMetadataUri",
          "type": "string"
        },
        {
          "internalType": "address[]",
          "name": "_payees",
          "type": "address[]"
        },
        {
          "internalType": "uint256[]",
          "name": "_shares",
          "type": "uint256[]"
        }
      ],
      "stateMutability": "payable",
      "type": "constructor"
    },
    {
      "anonymous": false,
      "inputs": [
        {
          "indexed": true,
          "internalType": "address",
          "name": "owner",
          "type": "address"
        },
        {
          "indexed": true,
          "internalType": "address",
          "name": "approved",
          "type": "address"
        },
        {
          "indexed": true,
          "internalType": "uint256",
          "name": "tokenId",
          "type": "uint256"
        }
      ],
      "name": "Approval",
      "type": "event"
    },
    {
      "anonymous": false,
      "inputs": [
        {
          "indexed": true,
          "internalType": "address",
          "name": "owner",
          "type": "address"
        },
        {
          "indexed": true,
          "internalType": "address",
          "name": "operator",
          "type": "address"
        },
        {
          "indexed": false,
          "internalType": "bool",
          "name": "approved",
          "type": "bool"
        }
      ],
      "name": "ApprovalForAll",
      "type": "event"
    },
    {
      "anonymous": false,
      "inputs": [
        {
          "indexed": true,
          "internalType": "contract IERC20",
          "name": "token",
          "type": "address"
        },
        {
          "indexed": false,
          "internalType": "address",
          "name": "to",
          "type": "address"
        },
        {
          "indexed": false,
          "internalType": "uint256",
          "name": "amount",
          "type": "uint256"
        }
      ],
      "name": "ERC20PaymentReleased",
      "type": "event"
    },
    {
      "anonymous": false,
      "inputs": [
        {
          "indexed": true,
          "internalType": "address",
          "name": "previousOwner",
          "type": "address"
        },
        {
          "indexed": true,
          "internalType": "address",
          "name": "newOwner",
          "type": "address"
        }
      ],
      "name": "OwnershipTransferred",
      "type": "event"
    },
    {
      "anonymous": false,
      "inputs": [
        {
          "indexed": false,
          "internalType": "address",
          "name": "account",
          "type": "address"
        },
        {
          "indexed": false,
          "internalType": "uint256",
          "name": "shares",
          "type": "uint256"
        }
      ],
      "name": "PayeeAdded",
      "type": "event"
    },
    {
      "anonymous": false,
      "inputs": [
        {
          "indexed": false,
          "internalType": "address",
          "name": "from",
          "type": "address"
        },
        {
          "indexed": false,
          "internalType": "uint256",
          "name": "amount",
          "type": "uint256"
        }
      ],
      "name": "PaymentReceived",
      "type": "event"
    },
    {
      "anonymous": false,
      "inputs": [
        {
          "indexed": false,
          "internalType": "address",
          "name": "to",
          "type": "address"
        },
        {
          "indexed": false,
          "internalType": "uint256",
          "name": "amount",
          "type": "uint256"
        }
      ],
      "name": "PaymentReleased",
      "type": "event"
    },
    {
      "anonymous": false,
      "inputs": [
        {
          "indexed": true,
          "internalType": "address",
          "name": "from",
          "type": "address"
        },
        {
          "indexed": true,
          "internalType": "address",
          "name": "to",
          "type": "address"
        },
        {
          "indexed": true,
          "internalType": "uint256",
          "name": "tokenId",
          "type": "uint256"
        }
      ],
      "name": "Transfer",
      "type": "event"
    },
    {
      "inputs": [],
      "name": "Author",
      "outputs": [
        {
          "internalType": "string",
          "name": "",
          "type": "string"
        }
      ],
      "stateMutability": "view",
      "type": "function"
    },
    {
      "inputs": [],
      "name": "MAX_TOKENS",
      "outputs": [
        {
          "internalType": "uint256",
          "name": "",
          "type": "uint256"
        }
      ],
      "stateMutability": "view",
      "type": "function"
    },
    {
      "inputs": [],
      "name": "ProjectTeam",
      "outputs": [
        {
          "internalType": "string",
          "name": "",
          "type": "string"
        }
      ],
      "stateMutability": "view",
      "type": "function"
    },
    {
      "inputs": [
        {
          "internalType": "address",
          "name": "to",
          "type": "address"
        },
        {
          "internalType": "uint256",
          "name": "tokenId",
          "type": "uint256"
        }
      ],
      "name": "approve",
      "outputs": [],
      "stateMutability": "nonpayable",
      "type": "function"
    },
    {
      "inputs": [
        {
          "internalType": "address",
          "name": "owner",
          "type": "address"
        }
      ],
      "name": "balanceOf",
      "outputs": [
        {
          "internalType": "uint256",
          "name": "",
          "type": "uint256"
        }
      ],
      "stateMutability": "view",
      "type": "function"
    },
    {
      "inputs": [],
      "name": "baseExtension",
      "outputs": [
        {
          "internalType": "string",
          "name": "",
          "type": "string"
        }
      ],
      "stateMutability": "view",
      "type": "function"
    },
    {
      "inputs": [
        {
          "internalType": "uint256",
          "name": "tokenId",
          "type": "uint256"
        }
      ],
      "name": "burn",
      "outputs": [],
      "stateMutability": "nonpayable",
      "type": "function"
    },
    {
      "inputs": [],
      "name": "collectionHash",
      "outputs": [
        {
          "internalType": "string",
          "name": "",
          "type": "string"
        }
      ],
      "stateMutability": "view",
      "type": "function"
    },
    {
      "inputs": [
        {
          "internalType": "uint256",
          "name": "tokenId",
          "type": "uint256"
        }
      ],
      "name": "getApproved",
      "outputs": [
        {
          "internalType": "address",
          "name": "",
          "type": "address"
        }
      ],
      "stateMutability": "view",
      "type": "function"
    },
    {
      "inputs": [],
      "name": "hiddenMetadataUri",
      "outputs": [
        {
          "internalType": "string",
          "name": "",
          "type": "string"
        }
      ],
      "stateMutability": "view",
      "type": "function"
    },
    {
      "inputs": [
        {
          "internalType": "address",
          "name": "owner",
          "type": "address"
        },
        {
          "internalType": "address",
          "name": "operator",
          "type": "address"
        }
      ],
      "name": "isApprovedForAll",
      "outputs": [
        {
          "internalType": "bool",
          "name": "",
          "type": "bool"
        }
      ],
      "stateMutability": "view",
      "type": "function"
    },
    {
      "inputs": [],
      "name": "maxWhitelistPassMints",
      "outputs": [
        {
          "internalType": "uint256",
          "name": "",
          "type": "uint256"
        }
      ],
      "stateMutability": "view",
      "type": "function"
    },
    {
      "inputs": [],
      "name": "name",
      "outputs": [
        {
          "internalType": "string",
          "name": "",
          "type": "string"
        }
      ],
      "stateMutability": "view",
      "type": "function"
    },
    {
      "inputs": [
        {
          "internalType": "uint256",
          "name": "quantity",
          "type": "uint256"
        }
      ],
      "name": "openMint",
      "outputs": [],
      "stateMutability": "payable",
      "type": "function"
    },
    {
      "inputs": [],
      "name": "owner",
      "outputs": [
        {
          "internalType": "address",
          "name": "",
          "type": "address"
        }
      ],
      "stateMutability": "view",
      "type": "function"
    },
    {
      "inputs": [
        {
          "internalType": "uint256",
          "name": "tokenId",
          "type": "uint256"
        }
      ],
      "name": "ownerOf",
      "outputs": [
        {
          "internalType": "address",
          "name": "",
          "type": "address"
        }
      ],
      "stateMutability": "view",
      "type": "function"
    },
    {
      "inputs": [
        {
          "internalType": "uint256",
          "name": "index",
          "type": "uint256"
        }
      ],
      "name": "payee",
      "outputs": [
        {
          "internalType": "address",
          "name": "",
          "type": "address"
        }
      ],
      "stateMutability": "view",
      "type": "function"
    },
    {
      "inputs": [],
      "name": "privateMintIsOpen",
      "outputs": [
        {
          "internalType": "bool",
          "name": "",
          "type": "bool"
        }
      ],
      "stateMutability": "view",
      "type": "function"
    },
    {
      "inputs": [],
      "name": "publicMintIsOpen",
      "outputs": [
        {
          "internalType": "bool",
          "name": "",
          "type": "bool"
        }
      ],
      "stateMutability": "view",
      "type": "function"
    },
    {
      "inputs": [],
      "name": "publicMintMaxLimit",
      "outputs": [
        {
          "internalType": "uint256",
          "name": "",
          "type": "uint256"
        }
      ],
      "stateMutability": "view",
      "type": "function"
    },
    {
      "inputs": [
        {
          "internalType": "address payable",
          "name": "account",
          "type": "address"
        }
      ],
      "name": "release",
      "outputs": [],
      "stateMutability": "nonpayable",
      "type": "function"
    },
    {
      "inputs": [
        {
          "internalType": "contract IERC20",
          "name": "token",
          "type": "address"
        },
        {
          "internalType": "address",
          "name": "account",
          "type": "address"
        }
      ],
      "name": "release",
      "outputs": [],
      "stateMutability": "nonpayable",
      "type": "function"
    },
    {
      "inputs": [
        {
          "internalType": "contract IERC20",
          "name": "token",
          "type": "address"
        },
        {
          "internalType": "address",
          "name": "account",
          "type": "address"
        }
      ],
      "name": "released",
      "outputs": [
        {
          "internalType": "uint256",
          "name": "",
          "type": "uint256"
        }
      ],
      "stateMutability": "view",
      "type": "function"
    },
    {
      "inputs": [
        {
          "internalType": "address",
          "name": "account",
          "type": "address"
        }
      ],
      "name": "released",
      "outputs": [
        {
          "internalType": "uint256",
          "name": "",
          "type": "uint256"
        }
      ],
      "stateMutability": "view",
      "type": "function"
    },
    {
      "inputs": [],
      "name": "renounceOwnership",
      "outputs": [],
      "stateMutability": "nonpayable",
      "type": "function"
    },
    {
      "inputs": [],
      "name": "revealed",
      "outputs": [
        {
          "internalType": "bool",
          "name": "",
          "type": "bool"
        }
      ],
      "stateMutability": "view",
      "type": "function"
    },
    {
      "inputs": [
        {
          "internalType": "address",
          "name": "from",
          "type": "address"
        },
        {
          "internalType": "address",
          "name": "to",
          "type": "address"
        },
        {
          "internalType": "uint256",
          "name": "tokenId",
          "type": "uint256"
        }
      ],
      "name": "safeTransferFrom",
      "outputs": [],
      "stateMutability": "nonpayable",
      "type": "function"
    },
    {
      "inputs": [
        {
          "internalType": "address",
          "name": "from",
          "type": "address"
        },
        {
          "internalType": "address",
          "name": "to",
          "type": "address"
        },
        {
          "internalType": "uint256",
          "name": "tokenId",
          "type": "uint256"
        },
        {
          "internalType": "bytes",
          "name": "_data",
          "type": "bytes"
        }
      ],
      "name": "safeTransferFrom",
      "outputs": [],
      "stateMutability": "nonpayable",
      "type": "function"
    },
    {
      "inputs": [
        {
          "internalType": "address",
          "name": "operator",
          "type": "address"
        },
        {
          "internalType": "bool",
          "name": "approved",
          "type": "bool"
        }
      ],
      "name": "setApprovalForAll",
      "outputs": [],
      "stateMutability": "nonpayable",
      "type": "function"
    },
    {
      "inputs": [
        {
          "internalType": "string",
          "name": "_baseExtension",
          "type": "string"
        }
      ],
      "name": "setBaseExtension",
      "outputs": [],
      "stateMutability": "nonpayable",
      "type": "function"
    },
    {
      "inputs": [
        {
          "internalType": "string",
          "name": "newBaseURI",
          "type": "string"
        }
      ],
      "name": "setBaseURI",
      "outputs": [],
      "stateMutability": "nonpayable",
      "type": "function"
    },
    {
      "inputs": [
        {
          "internalType": "string",
          "name": "newHash",
          "type": "string"
        }
      ],
      "name": "setCollectionHash",
      "outputs": [],
      "stateMutability": "nonpayable",
      "type": "function"
    },
    {
      "inputs": [
        {
          "internalType": "uint256",
          "name": "amount",
          "type": "uint256"
        }
      ],
      "name": "setFreeMints",
      "outputs": [],
      "stateMutability": "nonpayable",
      "type": "function"
    },
    {
      "inputs": [
        {
          "internalType": "string",
          "name": "_hiddenMetadataUri",
          "type": "string"
        }
      ],
      "name": "setHiddenMetadataUri",
      "outputs": [],
      "stateMutability": "nonpayable",
      "type": "function"
    },
    {
      "inputs": [
        {
          "internalType": "uint256",
          "name": "newPrice",
          "type": "uint256"
        },
        {
          "internalType": "uint256",
          "name": "newWhitelistTokenPrice",
          "type": "uint256"
        },
        {
          "internalType": "uint256",
          "name": "setOpenMintLimit",
          "type": "uint256"
        },
        {
          "internalType": "uint256",
          "name": "setWhistlistPassMintLimit",
          "type": "uint256"
        },
        {
          "internalType": "bool",
          "name": "setPublicMintState",
          "type": "bool"
        },
        {
          "internalType": "bool",
          "name": "setPrivateMintState",
          "type": "bool"
        }
      ],
      "name": "setParams",
      "outputs": [],
      "stateMutability": "nonpayable",
      "type": "function"
    },
    {
      "inputs": [
        {
          "internalType": "bool",
          "name": "_state",
          "type": "bool"
        }
      ],
      "name": "setRevealed",
      "outputs": [],
      "stateMutability": "nonpayable",
      "type": "function"
    },
    {
      "inputs": [
        {
          "internalType": "address",
          "name": "newSigner",
          "type": "address"
        }
      ],
      "name": "setSignerAddress",
      "outputs": [],
      "stateMutability": "nonpayable",
      "type": "function"
    },
    {
      "inputs": [
        {
          "internalType": "uint256",
          "name": "newPrice",
          "type": "uint256"
        }
      ],
      "name": "setTokenPrice",
      "outputs": [],
      "stateMutability": "nonpayable",
      "type": "function"
    },
    {
      "inputs": [
        {
          "internalType": "uint256",
          "name": "newMintLimit",
          "type": "uint256"
        }
      ],
      "name": "setTransactionMintLimit",
      "outputs": [],
      "stateMutability": "nonpayable",
      "type": "function"
    },
    {
      "inputs": [
        {
          "internalType": "address",
          "name": "newVault",
          "type": "address"
        }
      ],
      "name": "setVaultAddress",
      "outputs": [],
      "stateMutability": "nonpayable",
      "type": "function"
    },
    {
      "inputs": [
        {
          "internalType": "uint256",
          "name": "newprivateMintLimit",
          "type": "uint256"
        }
      ],
      "name": "setWhitelistTransactionMintLimit",
      "outputs": [],
      "stateMutability": "nonpayable",
      "type": "function"
    },
    {
      "inputs": [
        {
          "internalType": "address",
          "name": "account",
          "type": "address"
        }
      ],
      "name": "shares",
      "outputs": [
        {
          "internalType": "uint256",
          "name": "",
          "type": "uint256"
        }
      ],
      "stateMutability": "view",
      "type": "function"
    },
    {
      "inputs": [
        {
          "internalType": "bytes4",
          "name": "interfaceId",
          "type": "bytes4"
        }
      ],
      "name": "supportsInterface",
      "outputs": [
        {
          "internalType": "bool",
          "name": "",
          "type": "bool"
        }
      ],
      "stateMutability": "view",
      "type": "function"
    },
    {
      "inputs": [],
      "name": "symbol",
      "outputs": [
        {
          "internalType": "string",
          "name": "",
          "type": "string"
        }
      ],
      "stateMutability": "view",
      "type": "function"
    },
    {
      "inputs": [
        {
          "internalType": "address",
          "name": "to",
          "type": "address"
        },
        {
          "internalType": "uint256",
          "name": "amount",
          "type": "uint256"
        }
      ],
      "name": "teamMint",
      "outputs": [],
      "stateMutability": "nonpayable",
      "type": "function"
    },
    {
      "inputs": [],
      "name": "togglePresaleMint",
      "outputs": [],
      "stateMutability": "nonpayable",
      "type": "function"
    },
    {
      "inputs": [],
      "name": "togglePublicMint",
      "outputs": [],
      "stateMutability": "nonpayable",
      "type": "function"
    },
    {
      "inputs": [],
      "name": "tokenPrice",
      "outputs": [
        {
          "internalType": "uint256",
          "name": "",
          "type": "uint256"
        }
      ],
      "stateMutability": "view",
      "type": "function"
    },
    {
      "inputs": [
        {
          "internalType": "uint256",
          "name": "_tokenId",
          "type": "uint256"
        }
      ],
      "name": "tokenURI",
      "outputs": [
        {
          "internalType": "string",
          "name": "",
          "type": "string"
        }
      ],
      "stateMutability": "view",
      "type": "function"
    },
    {
      "inputs": [
        {
          "internalType": "contract IERC20",
          "name": "token",
          "type": "address"
        }
      ],
      "name": "totalReleased",
      "outputs": [
        {
          "internalType": "uint256",
          "name": "",
          "type": "uint256"
        }
      ],
      "stateMutability": "view",
      "type": "function"
    },
    {
      "inputs": [],
      "name": "totalReleased",
      "outputs": [
        {
          "internalType": "uint256",
          "name": "",
          "type": "uint256"
        }
      ],
      "stateMutability": "view",
      "type": "function"
    },
    {
      "inputs": [],
      "name": "totalShares",
      "outputs": [
        {
          "internalType": "uint256",
          "name": "",
          "type": "uint256"
        }
      ],
      "stateMutability": "view",
      "type": "function"
    },
    {
      "inputs": [],
      "name": "totalSupply",
      "outputs": [
        {
          "internalType": "uint256",
          "name": "",
          "type": "uint256"
        }
      ],
      "stateMutability": "view",
      "type": "function"
    },
    {
      "inputs": [
        {
          "internalType": "address",
          "name": "from",
          "type": "address"
        },
        {
          "internalType": "address",
          "name": "to",
          "type": "address"
        },
        {
          "internalType": "uint256",
          "name": "tokenId",
          "type": "uint256"
        }
      ],
      "name": "transferFrom",
      "outputs": [],
      "stateMutability": "nonpayable",
      "type": "function"
    },
    {
      "inputs": [
        {
          "internalType": "address",
          "name": "newOwner",
          "type": "address"
        }
      ],
      "name": "transferOwnership",
      "outputs": [],
      "stateMutability": "nonpayable",
      "type": "function"
    },
    {
      "inputs": [
        {
          "internalType": "uint8",
          "name": "quantity",
          "type": "uint8"
        },
        {
          "internalType": "uint8",
          "name": "claimable",
          "type": "uint8"
        },
        {
          "components": [
            {
              "internalType": "bytes32",
              "name": "r",
              "type": "bytes32"
            },
            {
              "internalType": "bytes32",
              "name": "s",
              "type": "bytes32"
            },
            {
              "internalType": "uint8",
              "name": "v",
              "type": "uint8"
            }
          ],
          "internalType": "struct StuffyBunny.WhitelistClaimPass",
          "name": "whitelistClaimPass",
          "type": "tuple"
        }
      ],
      "name": "whitelistClaimMint",
      "outputs": [],
      "stateMutability": "payable",
      "type": "function"
    },
    {
      "inputs": [],
      "name": "whitelistMintMaxLimit",
      "outputs": [
        {
          "internalType": "uint256",
          "name": "",
          "type": "uint256"
        }
      ],
      "stateMutability": "view",
      "type": "function"
    },
    {
      "inputs": [],
      "name": "whitelistTokenPrice",
      "outputs": [
        {
          "internalType": "uint256",
          "name": "",
          "type": "uint256"
        }
      ],
      "stateMutability": "view",
      "type": "function"
    },
    {
      "inputs": [],
      "name": "withdraw",
      "outputs": [],
      "stateMutability": "nonpayable",
      "type": "function"
    },
    {
      "stateMutability": "payable",
      "type": "receive"
    }
  ],
  "bytecode": "0x6032601181905560125567013fbe85edc9000060135566f8b0a10e4700006014556113886015556016805462ffffff191661010017905560c06040526005608081905264173539b7b760d91b60a09081526200005f9160189190620008dc565b5060405180606001604052806023815260200162004dfd6023913980516200009091601a91602090910190620008dc565b50601b80546001600160a01b0319908116909155601c8054909116905560408051808201909152600c8082526b0e8cac6d0dee6d0d25ccae8d60a31b6020909201918252620000e291601e91620008dc565b50604080518082019091526008808252676e667470756d707360c01b60209092019182526200011491601f91620008dc565b5060405162004e2038038062004e20833981016040819052620001379162000b8b565b81818989620001463362000350565b81516200015b906001906020850190620008dc565b50805162000171906002906020840190620008dc565b5050508051825114620001e65760405162461bcd60e51b815260206004820152603260248201527f5061796d656e7453706c69747465723a2070617965657320616e6420736861726044820152710cae640d8cadccee8d040dad2e6dac2e8c6d60731b60648201526084015b60405180910390fd5b6000825111620002395760405162461bcd60e51b815260206004820152601a60248201527f5061796d656e7453706c69747465723a206e6f207061796565730000000000006044820152606401620001dd565b60005b8251811015620002a557620002908382815181106200025f576200025f62000cb9565b60200260200101518383815181106200027c576200027c62000cb9565b6020026020010151620003a060201b60201c565b806200029c8162000ce5565b9150506200023c565b5050601b80546001600160a01b03199081166001600160a01b038a811691909117909255601c805490911691881691909117905550620002f2600f6200058e602090811b6200276c17901c565b62000309600f6200058e60201b6200276c1760201c565b6200031633600162000597565b83516200032b906017906020870190620008dc565b50825162000341906019906020860190620008dc565b50505050505050505062000de4565b600080546001600160a01b038381166001600160a01b0319831681178455604051919092169283917f8be0079c531659141344cd1fd0a4f28419497f9722a3daafe3b4186f6b6457e09190a35050565b6001600160a01b0382166200040d5760405162461bcd60e51b815260206004820152602c60248201527f5061796d656e7453706c69747465723a206163636f756e74206973207468652060448201526b7a65726f206164647265737360a01b6064820152608401620001dd565b600081116200045f5760405162461bcd60e51b815260206004820152601d60248201527f5061796d656e7453706c69747465723a207368617265732061726520300000006044820152606401620001dd565b6001600160a01b0382166000908152600a602052604090205415620004db5760405162461bcd60e51b815260206004820152602b60248201527f5061796d656e7453706c69747465723a206163636f756e7420616c726561647960448201526a206861732073686172657360a81b6064820152608401620001dd565b600c8054600181019091557fdf6966c971051c3d54ec59162606531493a51404a002842f56009d7e5cf4a8c70180546001600160a01b0319166001600160a01b0384169081179091556000908152600a602052604090208190556008546200054590829062000d03565b600855604080516001600160a01b0384168152602081018390527f40c340f65e17194d14ddddb073d3c9f888e3cb52b5aae0c6c7706b4fbc905fac910160405180910390a15050565b80546001019055565b620005b9828260405180602001604052806000815250620005bd60201b60201c565b5050565b620005c9838362000635565b620005d860008484846200077d565b620006305760405162461bcd60e51b8152602060048201526032602482015260008051602062004ddd83398151915260448201527131b2b4bb32b91034b6b83632b6b2b73a32b960711b6064820152608401620001dd565b505050565b6001600160a01b0382166200068d5760405162461bcd60e51b815260206004820181905260248201527f4552433732313a206d696e7420746f20746865207a65726f20616464726573736044820152606401620001dd565b6000818152600360205260409020546001600160a01b031615620006f45760405162461bcd60e51b815260206004820152601c60248201527f4552433732313a20746f6b656e20616c7265616479206d696e746564000000006044820152606401620001dd565b6001600160a01b03821660009081526004602052604081208054600192906200071f90849062000d03565b909155505060008181526003602052604080822080546001600160a01b0319166001600160a01b03861690811790915590518392907fddf252ad1be2c89b69c2b068fc378daa952ba7f163c4a11628f55a4df523b3ef908290a45050565b60006200079e846001600160a01b0316620008d660201b620027751760201c565b15620008ca57604051630a85bd0160e11b81526001600160a01b0385169063150b7a0290620007d890339089908890889060040162000d1e565b6020604051808303816000875af192505050801562000816575060408051601f3d908101601f19168201909252620008139181019062000d74565b60015b620008af573d80801562000847576040519150601f19603f3d011682016040523d82523d6000602084013e6200084c565b606091505b508051620008a75760405162461bcd60e51b8152602060048201526032602482015260008051602062004ddd83398151915260448201527131b2b4bb32b91034b6b83632b6b2b73a32b960711b6064820152608401620001dd565b805181602001fd5b6001600160e01b031916630a85bd0160e11b149050620008ce565b5060015b949350505050565b3b151590565b828054620008ea9062000da7565b90600052602060002090601f0160209004810192826200090e576000855562000959565b82601f106200092957805160ff191683800117855562000959565b8280016001018555821562000959579182015b82811115620009595782518255916020019190600101906200093c565b50620009679291506200096b565b5090565b5b808211156200096757600081556001016200096c565b634e487b7160e01b600052604160045260246000fd5b604051601f8201601f191681016001600160401b0381118282101715620009c357620009c362000982565b604052919050565b60005b83811015620009e8578181015183820152602001620009ce565b83811115620009f8576000848401525b50505050565b600082601f83011262000a1057600080fd5b81516001600160401b0381111562000a2c5762000a2c62000982565b62000a41601f8201601f191660200162000998565b81815284602083860101111562000a5757600080fd5b620008ce826020830160208701620009cb565b80516001600160a01b038116811462000a8257600080fd5b919050565b60006001600160401b0382111562000aa35762000aa362000982565b5060051b60200190565b600082601f83011262000abf57600080fd5b8151602062000ad862000ad28362000a87565b62000998565b82815260059290921b8401810191818101908684111562000af857600080fd5b8286015b8481101562000b1e5762000b108162000a6a565b835291830191830162000afc565b509695505050505050565b600082601f83011262000b3b57600080fd5b8151602062000b4e62000ad28362000a87565b82815260059290921b8401810191818101908684111562000b6e57600080fd5b8286015b8481101562000b1e578051835291830191830162000b72565b600080600080600080600080610100898b03121562000ba957600080fd5b88516001600160401b038082111562000bc157600080fd5b62000bcf8c838d01620009fe565b995060208b015191508082111562000be657600080fd5b62000bf48c838d01620009fe565b985062000c0460408c0162000a6a565b975062000c1460608c0162000a6a565b965060808b015191508082111562000c2b57600080fd5b62000c398c838d01620009fe565b955060a08b015191508082111562000c5057600080fd5b62000c5e8c838d01620009fe565b945060c08b015191508082111562000c7557600080fd5b62000c838c838d0162000aad565b935060e08b015191508082111562000c9a57600080fd5b5062000ca98b828c0162000b29565b9150509295985092959890939650565b634e487b7160e01b600052603260045260246000fd5b634e487b7160e01b600052601160045260246000fd5b600060001982141562000cfc5762000cfc62000ccf565b5060010190565b6000821982111562000d195762000d1962000ccf565b500190565b600060018060a01b03808716835280861660208401525083604083015260806060830152825180608084015262000d5d8160a0850160208701620009cb565b601f01601f19169190910160a00195945050505050565b60006020828403121562000d8757600080fd5b81516001600160e01b03198116811462000da057600080fd5b9392505050565b600181811c9082168062000dbc57607f821691505b6020821081141562000dde57634e487b7160e01b600052602260045260246000fd5b50919050565b613fe98062000df46000396000f3fe6080604052600436106103905760003560e01c806385535cc5116101dc578063d79779b211610102578063e7db8fb0116100a0578063f2fde38b1161006f578063f2fde38b14610ab4578063f47c84c514610ad4578063fa468ead14610aea578063fe471ed514610b0057600080fd5b8063e7db8fb014610a17578063e985e9c514610a37578063ed4dcde614610a80578063ee28de5214610a9557600080fd5b8063e0a80853116100dc578063e0a80853146109ac578063e2409095146109cc578063e33b7de3146109ec578063e4a4255114610a0157600080fd5b8063d79779b214610941578063d885dc2a14610977578063da3ef23f1461098c57600080fd5b8063a22cb4651161017a578063c668286211610149578063c6682862146108c0578063c87b56dd146108d5578063ce7c2ac2146108f5578063d25f40471461092b57600080fd5b8063a22cb4651461084b578063a45ba8e71461086b578063add5a4fa14610880578063b88d4fde146108a057600080fd5b806395d89b41116101b657806395d89b41146107d35780639852595c146107e8578063a02d1d5a1461081e578063a15d60c51461083157600080fd5b806385535cc5146107755780638b83209b146107955780638da5cb5b146107b557600080fd5b80633ccfd60b116102c15780634fdd43cb1161025f5780636a61e5fc1161022e5780636a61e5fc1461070a57806370a082311461072a578063715018a61461074a5780637ff9b5961461075f57600080fd5b80634fdd43cb1461068a57806351830227146106aa57806355f804b3146106ca5780636352211e146106ea57600080fd5b806342842e0e1161029b57806342842e0e146106175780634287084f1461063757806342966c681461064a57806348b750441461066a57600080fd5b80633ccfd60b146105a75780634047638d146105bc578063406072a9146105d157600080fd5b806318160ddd1161032e57806323b872dd1161030857806323b872dd146105475780632cb15fd314610567578063353f849e1461057d5780633a98ef391461059257600080fd5b806318160ddd146104ef578063191655871461051257806320b2af521461053257600080fd5b8063081812fc1161036a578063081812fc14610457578063095ea7b31461048f5780630d738aeb146104af5780630f1e6828146104cf57600080fd5b806301ffc9a7146103de578063046dc1661461041357806306fdde031461043557600080fd5b366103d9577f6ef95f06320e7a25a04a175ca677b7052bdd97131872c2192525a629f51be77033604080516001600160a01b0390921682523460208301520160405180910390a1005b600080fd5b3480156103ea57600080fd5b506103fe6103f9366004613876565b610b20565b60405190151581526020015b60405180910390f35b34801561041f57600080fd5b5061043361042e3660046138a8565b610c05565b005b34801561044157600080fd5b5061044a610c93565b60405161040a919061391d565b34801561046357600080fd5b50610477610472366004613930565b610d25565b6040516001600160a01b03909116815260200161040a565b34801561049b57600080fd5b506104336104aa366004613949565b610dcb565b3480156104bb57600080fd5b506104336104ca366004613930565b610efd565b3480156104db57600080fd5b506104336104ea366004613930565b610f5c565b3480156104fb57600080fd5b50610504610fbb565b60405190815260200161040a565b34801561051e57600080fd5b5061043361052d3660046138a8565b610fd7565b34801561053e57600080fd5b5061044a6111b1565b34801561055357600080fd5b50610433610562366004613975565b61123f565b34801561057357600080fd5b5061050460155481565b34801561058957600080fd5b5061044a6112c6565b34801561059e57600080fd5b50600854610504565b3480156105b357600080fd5b506104336112d3565b3480156105c857600080fd5b50610433611369565b3480156105dd57600080fd5b506105046105ec3660046139b6565b6001600160a01b039182166000908152600e6020908152604080832093909416825291909152205490565b34801561062357600080fd5b50610433610632366004613975565b6113d7565b610433610645366004613930565b6113f2565b34801561065657600080fd5b50610433610665366004613930565b6115aa565b34801561067657600080fd5b506104336106853660046139b6565b61160d565b34801561069657600080fd5b506104336106a5366004613a7b565b6118ab565b3480156106b657600080fd5b506016546103fe9062010000900460ff1681565b3480156106d657600080fd5b506104336106e5366004613a7b565b61191c565b3480156106f657600080fd5b50610477610705366004613930565b611989565b34801561071657600080fd5b50610433610725366004613930565b611a14565b34801561073657600080fd5b506105046107453660046138a8565b611a73565b34801561075657600080fd5b50610433611b0d565b34801561076b57600080fd5b5061050460135481565b34801561078157600080fd5b506104336107903660046138a8565b611b73565b3480156107a157600080fd5b506104776107b0366004613930565b611bfc565b3480156107c157600080fd5b506000546001600160a01b0316610477565b3480156107df57600080fd5b5061044a611c2c565b3480156107f457600080fd5b506105046108033660046138a8565b6001600160a01b03166000908152600b602052604090205490565b61043361082c366004613ada565b611c3b565b34801561083d57600080fd5b506016546103fe9060ff1681565b34801561085757600080fd5b50610433610866366004613b9b565b611ffb565b34801561087757600080fd5b5061044a612006565b34801561088c57600080fd5b5061043361089b366004613949565b612013565b3480156108ac57600080fd5b506104336108bb366004613bc9565b612120565b3480156108cc57600080fd5b5061044a6121a8565b3480156108e157600080fd5b5061044a6108f0366004613930565b6121b5565b34801561090157600080fd5b506105046109103660046138a8565b6001600160a01b03166000908152600a602052604090205490565b34801561093757600080fd5b5061050460115481565b34801561094d57600080fd5b5061050461095c3660046138a8565b6001600160a01b03166000908152600d602052604090205490565b34801561098357600080fd5b5061044a612343565b34801561099857600080fd5b506104336109a7366004613a7b565b612350565b3480156109b857600080fd5b506104336109c7366004613c49565b6123bd565b3480156109d857600080fd5b506104336109e7366004613c66565b61244f565b3480156109f857600080fd5b50600954610504565b348015610a0d57600080fd5b5061050460125481565b348015610a2357600080fd5b50610433610a32366004613930565b6124b5565b348015610a4357600080fd5b506103fe610a523660046139b6565b6001600160a01b03918216600090815260066020908152604080832093909416825291909152205460ff1690565b348015610a8c57600080fd5b50610433612566565b348015610aa157600080fd5b506016546103fe90610100900460ff1681565b348015610ac057600080fd5b50610433610acf3660046138a8565b6125dd565b348015610ae057600080fd5b5061050461138881565b348015610af657600080fd5b5061050460145481565b348015610b0c57600080fd5b50610433610b1b366004613cd8565b6126bc565b60007fffffffff0000000000000000000000000000000000000000000000000000000082167f80ac58cd000000000000000000000000000000000000000000000000000000001480610bb357507fffffffff0000000000000000000000000000000000000000000000000000000082167f5b5e139f00000000000000000000000000000000000000000000000000000000145b80610bff57507f01ffc9a7000000000000000000000000000000000000000000000000000000007fffffffff000000000000000000000000000000000000000000000000000000008316145b92915050565b6000546001600160a01b03163314610c645760405162461bcd60e51b815260206004820181905260248201527f4f776e61626c653a2063616c6c6572206973206e6f7420746865206f776e657260448201526064015b60405180910390fd5b601c805473ffffffffffffffffffffffffffffffffffffffff19166001600160a01b0392909216919091179055565b606060018054610ca290613d36565b80601f0160208091040260200160405190810160405280929190818152602001828054610cce90613d36565b8015610d1b5780601f10610cf057610100808354040283529160200191610d1b565b820191906000526020600020905b815481529060010190602001808311610cfe57829003601f168201915b5050505050905090565b6000818152600360205260408120546001600160a01b0316610daf5760405162461bcd60e51b815260206004820152602c60248201527f4552433732313a20617070726f76656420717565727920666f72206e6f6e657860448201527f697374656e7420746f6b656e00000000000000000000000000000000000000006064820152608401610c5b565b506000908152600560205260409020546001600160a01b031690565b6000610dd682611989565b9050806001600160a01b0316836001600160a01b03161415610e605760405162461bcd60e51b815260206004820152602160248201527f4552433732313a20617070726f76616c20746f2063757272656e74206f776e6560448201527f72000000000000000000000000000000000000000000000000000000000000006064820152608401610c5b565b336001600160a01b0382161480610e7c5750610e7c8133610a52565b610eee5760405162461bcd60e51b815260206004820152603860248201527f4552433732313a20617070726f76652063616c6c6572206973206e6f74206f7760448201527f6e6572206e6f7220617070726f76656420666f7220616c6c00000000000000006064820152608401610c5b565b610ef8838361277b565b505050565b6000546001600160a01b03163314610f575760405162461bcd60e51b815260206004820181905260248201527f4f776e61626c653a2063616c6c6572206973206e6f7420746865206f776e65726044820152606401610c5b565b601255565b6000546001600160a01b03163314610fb65760405162461bcd60e51b815260206004820181905260248201527f4f776e61626c653a2063616c6c6572206973206e6f7420746865206f776e65726044820152606401610c5b565b601155565b60006001610fc8600f5490565b610fd29190613d87565b905090565b6001600160a01b0381166000908152600a60205260409020546110625760405162461bcd60e51b815260206004820152602660248201527f5061796d656e7453706c69747465723a206163636f756e7420686173206e6f2060448201527f73686172657300000000000000000000000000000000000000000000000000006064820152608401610c5b565b600061106d60095490565b6110779047613d9e565b905060006110a4838361109f866001600160a01b03166000908152600b602052604090205490565b6127f6565b9050806111195760405162461bcd60e51b815260206004820152602b60248201527f5061796d656e7453706c69747465723a206163636f756e74206973206e6f742060448201527f647565207061796d656e740000000000000000000000000000000000000000006064820152608401610c5b565b6001600160a01b0383166000908152600b602052604081208054839290611141908490613d9e565b92505081905550806009600082825461115a9190613d9e565b9091555061116a9050838261283c565b604080516001600160a01b0385168152602081018390527fdf20fd1e76bc69d672e4814fafb2c449bba3a5369d8359adf9e05e6fde87b056910160405180910390a1505050565b601e80546111be90613d36565b80601f01602080910402602001604051908101604052809291908181526020018280546111ea90613d36565b80156112375780601f1061120c57610100808354040283529160200191611237565b820191906000526020600020905b81548152906001019060200180831161121a57829003601f168201915b505050505081565b6112493382612955565b6112bb5760405162461bcd60e51b815260206004820152603160248201527f4552433732313a207472616e736665722063616c6c6572206973206e6f74206f60448201527f776e6572206e6f7220617070726f7665640000000000000000000000000000006064820152608401610c5b565b610ef8838383612a5c565b601f80546111be90613d36565b6000546001600160a01b0316331461132d5760405162461bcd60e51b815260206004820181905260248201527f4f776e61626c653a2063616c6c6572206973206e6f7420746865206f776e65726044820152606401610c5b565b601b546040516001600160a01b03909116904780156108fc02916000818181858888f19350505050158015611366573d6000803e3d6000fd5b50565b6000546001600160a01b031633146113c35760405162461bcd60e51b815260206004820181905260248201527f4f776e61626c653a2063616c6c6572206973206e6f7420746865206f776e65726044820152606401610c5b565b6016805460ff19811660ff90911615179055565b610ef883838360405180602001604052806000815250612120565b34816013546114019190613db6565b111561144f5760405162461bcd60e51b815260206004820152601560248201527f4e6f7420656e6f7567682065746865722073656e7400000000000000000000006044820152606401610c5b565b600061145a600f5490565b60165490915060ff1615156001146114b45760405162461bcd60e51b815260206004820152601260248201527f5075626c6963204d696e7420436c6f73656400000000000000000000000000006044820152606401610c5b565b6011548211156115065760405162461bcd60e51b815260206004820152601560248201527f4d696e7420616d6f756e7420746f6f206c6172676500000000000000000000006044820152606401610c5b565b611388611514600183613d87565b61151e9084613d9e565b111561156c5760405162461bcd60e51b815260206004820152601b60248201527f4e6f7420656e6f75676820746f6b656e732072656d61696e696e6700000000006044820152606401610c5b565b60005b82811015610ef857611585600f80546001019055565b611598336115938385613d9e565b612c36565b806115a281613dd5565b91505061156f565b6000546001600160a01b031633146116045760405162461bcd60e51b815260206004820181905260248201527f4f776e61626c653a2063616c6c6572206973206e6f7420746865206f776e65726044820152606401610c5b565b61136681612c50565b6001600160a01b0381166000908152600a60205260409020546116985760405162461bcd60e51b815260206004820152602660248201527f5061796d656e7453706c69747465723a206163636f756e7420686173206e6f2060448201527f73686172657300000000000000000000000000000000000000000000000000006064820152608401610c5b565b6001600160a01b0382166000908152600d60205260408120546040517f70a082310000000000000000000000000000000000000000000000000000000081523060048201526001600160a01b038516906370a0823190602401602060405180830381865afa15801561170e573d6000803e3d6000fd5b505050506040513d601f19601f820116820180604052508101906117329190613df0565b61173c9190613d9e565b90506000611775838361109f87876001600160a01b039182166000908152600e6020908152604080832093909416825291909152205490565b9050806117ea5760405162461bcd60e51b815260206004820152602b60248201527f5061796d656e7453706c69747465723a206163636f756e74206973206e6f742060448201527f647565207061796d656e740000000000000000000000000000000000000000006064820152608401610c5b565b6001600160a01b038085166000908152600e6020908152604080832093871683529290529081208054839290611821908490613d9e565b90915550506001600160a01b0384166000908152600d60205260408120805483929061184e908490613d9e565b9091555061185f9050848483612c59565b604080516001600160a01b038581168252602082018490528616917f3be5b7a71e84ed12875d241991c70855ac5817d847039e17a9d895c1ceb0f18a910160405180910390a250505050565b6000546001600160a01b031633146119055760405162461bcd60e51b815260206004820181905260248201527f4f776e61626c653a2063616c6c6572206973206e6f7420746865206f776e65726044820152606401610c5b565b8051611918906019906020840190613705565b5050565b6000546001600160a01b031633146119765760405162461bcd60e51b815260206004820181905260248201527f4f776e61626c653a2063616c6c6572206973206e6f7420746865206f776e65726044820152606401610c5b565b8051611918906017906020840190613705565b6000818152600360205260408120546001600160a01b031680610bff5760405162461bcd60e51b815260206004820152602960248201527f4552433732313a206f776e657220717565727920666f72206e6f6e657869737460448201527f656e7420746f6b656e00000000000000000000000000000000000000000000006064820152608401610c5b565b6000546001600160a01b03163314611a6e5760405162461bcd60e51b815260206004820181905260248201527f4f776e61626c653a2063616c6c6572206973206e6f7420746865206f776e65726044820152606401610c5b565b601355565b60006001600160a01b038216611af15760405162461bcd60e51b815260206004820152602a60248201527f4552433732313a2062616c616e636520717565727920666f7220746865207a6560448201527f726f2061646472657373000000000000000000000000000000000000000000006064820152608401610c5b565b506001600160a01b031660009081526004602052604090205490565b6000546001600160a01b03163314611b675760405162461bcd60e51b815260206004820181905260248201527f4f776e61626c653a2063616c6c6572206973206e6f7420746865206f776e65726044820152606401610c5b565b611b716000612cd9565b565b6000546001600160a01b03163314611bcd5760405162461bcd60e51b815260206004820181905260248201527f4f776e61626c653a2063616c6c6572206973206e6f7420746865206f776e65726044820152606401610c5b565b601b805473ffffffffffffffffffffffffffffffffffffffff19166001600160a01b0392909216919091179055565b6000600c8281548110611c1157611c11613e09565b6000918252602090912001546001600160a01b031692915050565b606060028054610ca290613d36565b6040805160ff841660208083019190915233828401528251808303840181526060909201909252805191012082908290611c758183612d36565b611cc15760405162461bcd60e51b815260206004820152600c60248201527f496e76616c6964205061737300000000000000000000000000000000000000006044820152606401610c5b565b348660ff16601454611cd39190613db6565b1115611d215760405162461bcd60e51b815260206004820152601560248201527f4e6f7420656e6f7567682065746865722073656e7400000000000000000000006044820152606401610c5b565b6000611d2c600f5490565b60165490915060ff610100909104161515600114611d8c5760405162461bcd60e51b815260206004820152601160248201527f436c61696d204d696e7420436c6f7365640000000000000000000000000000006044820152606401610c5b565b611388611d9a600183613d87565b611da79060ff8a16613d9e565b1115611df55760405162461bcd60e51b815260206004820152601b60248201527f4e6f7420656e6f75676820746f6b656e732072656d61696e696e6700000000006044820152606401610c5b565b8560ff168760ff161115611e715760405162461bcd60e51b815260206004820152602d60248201527f4d696e74207175616e746974792063616e27742062652067726561746572207460448201527f68616e20636c61696d61626c65000000000000000000000000000000000000006064820152608401610c5b565b60008760ff1611611eea5760405162461bcd60e51b815260206004820152602760248201527f4d696e74207175616e74697479206d757374206265206772656174657220746860448201527f616e207a65726f000000000000000000000000000000000000000000000000006064820152608401610c5b565b6012548760ff161115611f3f5760405162461bcd60e51b815260206004820152601760248201527f4d696e74207175616e7469747920746f6f206c617267650000000000000000006044820152606401610c5b565b6015548760ff16611f4f60105490565b611f599190613d9e565b1115611fa75760405162461bcd60e51b815260206004820152601f60248201527f4e6f7420656e6f7567682066726565206d696e74732072656d61696e696e67006044820152606401610c5b565b60005b8760ff16811015611ff157611fc3600f80546001019055565b611fd1601080546001019055565b611fdf336115938385613d9e565b80611fe981613dd5565b915050611faa565b5050505050505050565b611918338383612e1e565b601980546111be90613d36565b6000546001600160a01b0316331461206d5760405162461bcd60e51b815260206004820181905260248201527f4f776e61626c653a2063616c6c6572206973206e6f7420746865206f776e65726044820152606401610c5b565b6000612078600f5490565b905061138882612089600184613d87565b6120939190613d9e565b11156120e15760405162461bcd60e51b815260206004820152601b60248201527f4e6f7420656e6f75676820746f6b656e732072656d61696e696e6700000000006044820152606401610c5b565b60005b8281101561211a576120fa600f80546001019055565b612108846115938385613d9e565b8061211281613dd5565b9150506120e4565b50505050565b61212a3383612955565b61219c5760405162461bcd60e51b815260206004820152603160248201527f4552433732313a207472616e736665722063616c6c6572206973206e6f74206f60448201527f776e6572206e6f7220617070726f7665640000000000000000000000000000006064820152608401610c5b565b61211a84848484612eed565b601880546111be90613d36565b6000818152600360205260409020546060906001600160a01b03166122425760405162461bcd60e51b815260206004820152602f60248201527f4552433732314d657461646174613a2055524920717565727920666f72206e6f60448201527f6e6578697374656e7420746f6b656e00000000000000000000000000000000006064820152608401610c5b565b60165462010000900460ff166122e4576019805461225f90613d36565b80601f016020809104026020016040519081016040528092919081815260200182805461228b90613d36565b80156122d85780601f106122ad576101008083540402835291602001916122d8565b820191906000526020600020905b8154815290600101906020018083116122bb57829003601f168201915b50505050509050919050565b60006122ee612f76565b9050600081511161230e576040518060200160405280600081525061233c565b8061231884612f85565b601860405160200161232c93929190613e1f565b6040516020818303038152906040525b9392505050565b601a80546111be90613d36565b6000546001600160a01b031633146123aa5760405162461bcd60e51b815260206004820181905260248201527f4f776e61626c653a2063616c6c6572206973206e6f7420746865206f776e65726044820152606401610c5b565b8051611918906018906020840190613705565b6000546001600160a01b031633146124175760405162461bcd60e51b815260206004820181905260248201527f4f776e61626c653a2063616c6c6572206973206e6f7420746865206f776e65726044820152606401610c5b565b6016805491151562010000027fffffffffffffffffffffffffffffffffffffffffffffffffffffffffff00ffff909216919091179055565b6000546001600160a01b031633146124a95760405162461bcd60e51b815260206004820181905260248201527f4f776e61626c653a2063616c6c6572206973206e6f7420746865206f776e65726044820152606401610c5b565b610ef8601a8383613789565b6000546001600160a01b0316331461250f5760405162461bcd60e51b815260206004820181905260248201527f4f776e61626c653a2063616c6c6572206973206e6f7420746865206f776e65726044820152606401610c5b565b6113888111156125615760405162461bcd60e51b815260206004820152601a60248201527f46726565206d696e7420616d6f756e7420746f6f206c617267650000000000006044820152606401610c5b565b601555565b6000546001600160a01b031633146125c05760405162461bcd60e51b815260206004820181905260248201527f4f776e61626c653a2063616c6c6572206973206e6f7420746865206f776e65726044820152606401610c5b565b6016805461ff001981166101009182900460ff1615909102179055565b6000546001600160a01b031633146126375760405162461bcd60e51b815260206004820181905260248201527f4f776e61626c653a2063616c6c6572206973206e6f7420746865206f776e65726044820152606401610c5b565b6001600160a01b0381166126b35760405162461bcd60e51b815260206004820152602660248201527f4f776e61626c653a206e6577206f776e657220697320746865207a65726f206160448201527f64647265737300000000000000000000000000000000000000000000000000006064820152608401610c5b565b61136681612cd9565b6000546001600160a01b031633146127165760405162461bcd60e51b815260206004820181905260248201527f4f776e61626c653a2063616c6c6572206973206e6f7420746865206f776e65726044820152606401610c5b565b601494909455601394909455601191909155601255601680547fffffffffffffffffffffffffffffffffffffffffffffffffffffffffffff00001692151561ff0019169290921761010091151591909102179055565b80546001019055565b3b151590565b6000818152600560205260409020805473ffffffffffffffffffffffffffffffffffffffff19166001600160a01b03841690811790915581906127bd82611989565b6001600160a01b03167f8c5be1e5ebec7d5bd14f71427d1e84f3dd0314c0f7b2291e5b200ac8c7c3b92560405160405180910390a45050565b6008546001600160a01b0384166000908152600a6020526040812054909183916128209086613db6565b61282a9190613ef9565b6128349190613d87565b949350505050565b8047101561288c5760405162461bcd60e51b815260206004820152601d60248201527f416464726573733a20696e73756666696369656e742062616c616e63650000006044820152606401610c5b565b6000826001600160a01b03168260405160006040518083038185875af1925050503d80600081146128d9576040519150601f19603f3d011682016040523d82523d6000602084013e6128de565b606091505b5050905080610ef85760405162461bcd60e51b815260206004820152603a60248201527f416464726573733a20756e61626c6520746f2073656e642076616c75652c207260448201527f6563697069656e74206d617920686176652072657665727465640000000000006064820152608401610c5b565b6000818152600360205260408120546001600160a01b03166129df5760405162461bcd60e51b815260206004820152602c60248201527f4552433732313a206f70657261746f7220717565727920666f72206e6f6e657860448201527f697374656e7420746f6b656e00000000000000000000000000000000000000006064820152608401610c5b565b60006129ea83611989565b9050806001600160a01b0316846001600160a01b03161480612a255750836001600160a01b0316612a1a84610d25565b6001600160a01b0316145b8061283457506001600160a01b0380821660009081526006602090815260408083209388168352929052205460ff16949350505050565b826001600160a01b0316612a6f82611989565b6001600160a01b031614612aeb5760405162461bcd60e51b815260206004820152602960248201527f4552433732313a207472616e73666572206f6620746f6b656e2074686174206960448201527f73206e6f74206f776e00000000000000000000000000000000000000000000006064820152608401610c5b565b6001600160a01b038216612b665760405162461bcd60e51b8152602060048201526024808201527f4552433732313a207472616e7366657220746f20746865207a65726f2061646460448201527f72657373000000000000000000000000000000000000000000000000000000006064820152608401610c5b565b612b7160008261277b565b6001600160a01b0383166000908152600460205260408120805460019290612b9a908490613d87565b90915550506001600160a01b0382166000908152600460205260408120805460019290612bc8908490613d9e565b9091555050600081815260036020526040808220805473ffffffffffffffffffffffffffffffffffffffff19166001600160a01b0386811691821790925591518493918716917fddf252ad1be2c89b69c2b068fc378daa952ba7f163c4a11628f55a4df523b3ef91a4505050565b6119188282604051806020016040528060008152506130b7565b61136681613140565b604080516001600160a01b038416602482015260448082018490528251808303909101815260649091019091526020810180517bffffffffffffffffffffffffffffffffffffffffffffffffffffffff167fa9059cbb00000000000000000000000000000000000000000000000000000000179052610ef8908490613180565b600080546001600160a01b0383811673ffffffffffffffffffffffffffffffffffffffff19831681178455604051919092169283917f8be0079c531659141344cd1fd0a4f28419497f9722a3daafe3b4186f6b6457e09190a35050565b60008060018484604001518560000151866020015160405160008152602001604052604051612d81949392919093845260ff9290921660208401526040830152606082015260800190565b6020604051602081039080840390855afa158015612da3573d6000803e3d6000fd5b5050604051601f1901519150506001600160a01b038116612e065760405162461bcd60e51b815260206004820152601860248201527f45434453413a20696e76616c6964207369676e617475726500000000000000006044820152606401610c5b565b601c546001600160a01b039081169116149392505050565b816001600160a01b0316836001600160a01b03161415612e805760405162461bcd60e51b815260206004820152601960248201527f4552433732313a20617070726f766520746f2063616c6c6572000000000000006044820152606401610c5b565b6001600160a01b03838116600081815260066020908152604080832094871680845294825291829020805460ff191686151590811790915591519182527f17307eab39ab6107e8899845ad3d59bd9653f200f220920489ca2b5937696c31910160405180910390a3505050565b612ef8848484612a5c565b612f0484848484613265565b61211a5760405162461bcd60e51b815260206004820152603260248201527f4552433732313a207472616e7366657220746f206e6f6e20455243373231526560448201527f63656976657220696d706c656d656e74657200000000000000000000000000006064820152608401610c5b565b606060178054610ca290613d36565b606081612fc557505060408051808201909152600181527f3000000000000000000000000000000000000000000000000000000000000000602082015290565b8160005b8115612fef5780612fd981613dd5565b9150612fe89050600a83613ef9565b9150612fc9565b60008167ffffffffffffffff81111561300a5761300a6139ef565b6040519080825280601f01601f191660200182016040528015613034576020820181803683370190505b5090505b841561283457613049600183613d87565b9150613056600a86613f0d565b613061906030613d9e565b60f81b81838151811061307657613076613e09565b60200101907effffffffffffffffffffffffffffffffffffffffffffffffffffffffffffff1916908160001a9053506130b0600a86613ef9565b9450613038565b6130c18383613403565b6130ce6000848484613265565b610ef85760405162461bcd60e51b815260206004820152603260248201527f4552433732313a207472616e7366657220746f206e6f6e20455243373231526560448201527f63656976657220696d706c656d656e74657200000000000000000000000000006064820152608401610c5b565b61314981613552565b6000818152600760205260409020805461316290613d36565b159050611366576000818152600760205260408120611366916137fd565b60006131d5826040518060400160405280602081526020017f5361666545524332303a206c6f772d6c6576656c2063616c6c206661696c6564815250856001600160a01b03166135fa9092919063ffffffff16565b805190915015610ef857808060200190518101906131f39190613f21565b610ef85760405162461bcd60e51b815260206004820152602a60248201527f5361666545524332303a204552433230206f7065726174696f6e20646964206e60448201527f6f742073756363656564000000000000000000000000000000000000000000006064820152608401610c5b565b60006001600160a01b0384163b156133f8576040517f150b7a020000000000000000000000000000000000000000000000000000000081526001600160a01b0385169063150b7a02906132c2903390899088908890600401613f3e565b6020604051808303816000875af19250505080156132fd575060408051601f3d908101601f191682019092526132fa91810190613f7a565b60015b6133ad573d80801561332b576040519150601f19603f3d011682016040523d82523d6000602084013e613330565b606091505b5080516133a55760405162461bcd60e51b815260206004820152603260248201527f4552433732313a207472616e7366657220746f206e6f6e20455243373231526560448201527f63656976657220696d706c656d656e74657200000000000000000000000000006064820152608401610c5b565b805181602001fd5b7fffffffff00000000000000000000000000000000000000000000000000000000167f150b7a0200000000000000000000000000000000000000000000000000000000149050612834565b506001949350505050565b6001600160a01b0382166134595760405162461bcd60e51b815260206004820181905260248201527f4552433732313a206d696e7420746f20746865207a65726f20616464726573736044820152606401610c5b565b6000818152600360205260409020546001600160a01b0316156134be5760405162461bcd60e51b815260206004820152601c60248201527f4552433732313a20746f6b656e20616c7265616479206d696e746564000000006044820152606401610c5b565b6001600160a01b03821660009081526004602052604081208054600192906134e7908490613d9e565b9091555050600081815260036020526040808220805473ffffffffffffffffffffffffffffffffffffffff19166001600160a01b03861690811790915590518392907fddf252ad1be2c89b69c2b068fc378daa952ba7f163c4a11628f55a4df523b3ef908290a45050565b600061355d82611989565b905061356a60008361277b565b6001600160a01b0381166000908152600460205260408120805460019290613593908490613d87565b9091555050600082815260036020526040808220805473ffffffffffffffffffffffffffffffffffffffff19169055518391906001600160a01b038416907fddf252ad1be2c89b69c2b068fc378daa952ba7f163c4a11628f55a4df523b3ef908390a45050565b6060612834848460008585843b6136535760405162461bcd60e51b815260206004820152601d60248201527f416464726573733a2063616c6c20746f206e6f6e2d636f6e74726163740000006044820152606401610c5b565b600080866001600160a01b0316858760405161366f9190613f97565b60006040518083038185875af1925050503d80600081146136ac576040519150601f19603f3d011682016040523d82523d6000602084013e6136b1565b606091505b50915091506136c18282866136cc565b979650505050505050565b606083156136db57508161233c565b8251156136eb5782518084602001fd5b8160405162461bcd60e51b8152600401610c5b919061391d565b82805461371190613d36565b90600052602060002090601f0160209004810192826137335760008555613779565b82601f1061374c57805160ff1916838001178555613779565b82800160010185558215613779579182015b8281111561377957825182559160200191906001019061375e565b50613785929150613833565b5090565b82805461379590613d36565b90600052602060002090601f0160209004810192826137b75760008555613779565b82601f106137d05782800160ff19823516178555613779565b82800160010185558215613779579182015b828111156137795782358255916020019190600101906137e2565b50805461380990613d36565b6000825580601f10613819575050565b601f01602090049060005260206000209081019061136691905b5b808211156137855760008155600101613834565b7fffffffff000000000000000000000000000000000000000000000000000000008116811461136657600080fd5b60006020828403121561388857600080fd5b813561233c81613848565b6001600160a01b038116811461136657600080fd5b6000602082840312156138ba57600080fd5b813561233c81613893565b60005b838110156138e05781810151838201526020016138c8565b8381111561211a5750506000910152565b600081518084526139098160208601602086016138c5565b601f01601f19169290920160200192915050565b60208152600061233c60208301846138f1565b60006020828403121561394257600080fd5b5035919050565b6000806040838503121561395c57600080fd5b823561396781613893565b946020939093013593505050565b60008060006060848603121561398a57600080fd5b833561399581613893565b925060208401356139a581613893565b929592945050506040919091013590565b600080604083850312156139c957600080fd5b82356139d481613893565b915060208301356139e481613893565b809150509250929050565b634e487b7160e01b600052604160045260246000fd5b600067ffffffffffffffff80841115613a2057613a206139ef565b604051601f8501601f19908116603f01168101908282118183101715613a4857613a486139ef565b81604052809350858152868686011115613a6157600080fd5b858560208301376000602087830101525050509392505050565b600060208284031215613a8d57600080fd5b813567ffffffffffffffff811115613aa457600080fd5b8201601f81018413613ab557600080fd5b61283484823560208401613a05565b803560ff81168114613ad557600080fd5b919050565b600080600083850360a0811215613af057600080fd5b613af985613ac4565b9350613b0760208601613ac4565b925060607fffffffffffffffffffffffffffffffffffffffffffffffffffffffffffffffc082011215613b3957600080fd5b506040516060810181811067ffffffffffffffff82111715613b5d57613b5d6139ef565b6040908152850135815260608501356020820152613b7d60808601613ac4565b6040820152809150509250925092565b801515811461136657600080fd5b60008060408385031215613bae57600080fd5b8235613bb981613893565b915060208301356139e481613b8d565b60008060008060808587031215613bdf57600080fd5b8435613bea81613893565b93506020850135613bfa81613893565b925060408501359150606085013567ffffffffffffffff811115613c1d57600080fd5b8501601f81018713613c2e57600080fd5b613c3d87823560208401613a05565b91505092959194509250565b600060208284031215613c5b57600080fd5b813561233c81613b8d565b60008060208385031215613c7957600080fd5b823567ffffffffffffffff80821115613c9157600080fd5b818501915085601f830112613ca557600080fd5b813581811115613cb457600080fd5b866020828501011115613cc657600080fd5b60209290920196919550909350505050565b60008060008060008060c08789031215613cf157600080fd5b863595506020870135945060408701359350606087013592506080870135613d1881613b8d565b915060a0870135613d2881613b8d565b809150509295509295509295565b600181811c90821680613d4a57607f821691505b60208210811415613d6b57634e487b7160e01b600052602260045260246000fd5b50919050565b634e487b7160e01b600052601160045260246000fd5b600082821015613d9957613d99613d71565b500390565b60008219821115613db157613db1613d71565b500190565b6000816000190483118215151615613dd057613dd0613d71565b500290565b6000600019821415613de957613de9613d71565b5060010190565b600060208284031215613e0257600080fd5b5051919050565b634e487b7160e01b600052603260045260246000fd5b600084516020613e328285838a016138c5565b855191840191613e458184848a016138c5565b8554920191600090600181811c9080831680613e6257607f831692505b858310811415613e8057634e487b7160e01b85526022600452602485fd5b808015613e945760018114613ea557613ed2565b60ff19851688528388019550613ed2565b60008b81526020902060005b85811015613eca5781548a820152908401908801613eb1565b505083880195505b50939b9a5050505050505050505050565b634e487b7160e01b600052601260045260246000fd5b600082613f0857613f08613ee3565b500490565b600082613f1c57613f1c613ee3565b500690565b600060208284031215613f3357600080fd5b815161233c81613b8d565b60006001600160a01b03808716835280861660208401525083604083015260806060830152613f7060808301846138f1565b9695505050505050565b600060208284031215613f8c57600080fd5b815161233c81613848565b60008251613fa98184602087016138c5565b919091019291505056fea264697066735822122047a34d69a679f6d0807ebf68b5d2bb723a3efe43ae0a3ac6deb1a52ec9e7eb0564736f6c634300080b00334552433732313a207472616e7366657220746f206e6f6e20455243373231526542363235323845412d35303236423230332d41413633363545412d4338453334444339",
  "linkReferences": {},
  "deployedLinkReferences": {}
}